{
  "_format": "hh-sol-artifact-1",
  "contractName": "HelloWorldContract",
  "sourceName": "contracts/1-HelloWorldContract.sol",
  "abi": [
    {
      "inputs": [
        {
          "internalType": "string",
          "name": "_greeting",
          "type": "string"
        }
      ],
      "stateMutability": "nonpayable",
      "type": "constructor"
    },
    {
      "anonymous": false,
      "inputs": [
        {
          "indexed": false,
          "internalType": "uint256",
          "name": "purpose",
          "type": "uint256"
        },
        {
          "indexed": false,
          "internalType": "address",
          "name": "sender",
          "type": "address"
        }
      ],
      "name": "SetPurpose",
      "type": "event"
    },
    {
      "inputs": [],
      "name": "greet",
      "outputs": [
        {
          "internalType": "string",
          "name": "",
          "type": "string"
        }
      ],
      "stateMutability": "view",
      "type": "function"
    },
    {
      "inputs": [
        {
          "internalType": "string",
          "name": "_greeting",
          "type": "string"
        }
      ],
      "name": "setGreeting",
      "outputs": [],
      "stateMutability": "payable",
      "type": "function"
    },
    {
      "inputs": [],
      "name": "testpublic",
      "outputs": [
        {
          "internalType": "string",
          "name": "",
          "type": "string"
        }
      ],
      "stateMutability": "view",
      "type": "function"
    },
    {
      "stateMutability": "payable",
      "type": "receive"
    }
  ],
  "bytecode": "0x60806040526040518060400160405280600c81526020017f61686f7261207075626c696300000000000000000000000000000000000000008152506001908051906020019062000051929190620001a4565b503480156200005f57600080fd5b5060405162000c8538038062000c858339818101604052810190620000859190620002c6565b620000b560405180606001604052806022815260200162000c636022913982620000d560201b620002751760201c565b8060009080519060200190620000cd929190620001a4565b505062000513565b620001778282604051602401620000ee9291906200034c565b6040516020818303038152906040527f4b5c4277000000000000000000000000000000000000000000000000000000007bffffffffffffffffffffffffffffffffffffffffffffffffffffffff19166020820180517bffffffffffffffffffffffffffffffffffffffffffffffffffffffff83818316178352505050506200017b60201b60201c565b5050565b60008151905060006a636f6e736f6c652e6c6f679050602083016000808483855afa5050505050565b828054620001b29062000438565b90600052602060002090601f016020900481019282620001d6576000855562000222565b82601f10620001f157805160ff191683800117855562000222565b8280016001018555821562000222579182015b828111156200022157825182559160200191906001019062000204565b5b50905062000231919062000235565b5090565b5b808211156200025057600081600090555060010162000236565b5090565b60006200026b6200026584620003b0565b62000387565b9050828152602081018484840111156200028457600080fd5b6200029184828562000402565b509392505050565b600082601f830112620002ab57600080fd5b8151620002bd84826020860162000254565b91505092915050565b600060208284031215620002d957600080fd5b600082015167ffffffffffffffff811115620002f457600080fd5b620003028482850162000299565b91505092915050565b60006200031882620003e6565b620003248185620003f1565b93506200033681856020860162000402565b620003418162000502565b840191505092915050565b600060408201905081810360008301526200036881856200030b565b905081810360208301526200037e81846200030b565b90509392505050565b600062000393620003a6565b9050620003a182826200046e565b919050565b6000604051905090565b600067ffffffffffffffff821115620003ce57620003cd620004d3565b5b620003d98262000502565b9050602081019050919050565b600081519050919050565b600082825260208201905092915050565b60005b838110156200042257808201518184015260208101905062000405565b8381111562000432576000848401525b50505050565b600060028204905060018216806200045157607f821691505b60208210811415620004685762000467620004a4565b5b50919050565b620004798262000502565b810181811067ffffffffffffffff821117156200049b576200049a620004d3565b5b80604052505050565b7f4e487b7100000000000000000000000000000000000000000000000000000000600052602260045260246000fd5b7f4e487b7100000000000000000000000000000000000000000000000000000000600052604160045260246000fd5b6000601f19601f8301169050919050565b61074080620005236000396000f3fe6080604052600436106100385760003560e01c8063666c311b14610044578063a41368621461006f578063cfae32171461008b5761003f565b3661003f57005b600080fd5b34801561005057600080fd5b506100596100b6565b60405161006691906104e2565b60405180910390f35b61008960048036038101906100849190610445565b610144565b005b34801561009757600080fd5b506100a06101e3565b6040516100ad91906104e2565b60405180910390f35b600180546100c39061060f565b80601f01602080910402602001604051908101604052809291908181526020018280546100ef9061060f565b801561013c5780601f106101115761010080835404028352916020019161013c565b820191906000526020600020905b81548152906001019060200180831161011f57829003601f168201915b505050505081565b6040518060400160405280600481526020017f686f6c6100000000000000000000000000000000000000000000000000000000815250805190602001208180519060200120146101c9576040517f08c379a00000000000000000000000000000000000000000000000000000000081526004016101c09061053b565b60405180910390fd5b80600090805190602001906101df92919061033a565b5050565b6060600080546101f29061060f565b80601f016020809104026020016040519081016040528092919081815260200182805461021e9061060f565b801561026b5780601f106102405761010080835404028352916020019161026b565b820191906000526020600020905b81548152906001019060200180831161024e57829003601f168201915b5050505050905090565b61030d828260405160240161028b929190610504565b6040516020818303038152906040527f4b5c4277000000000000000000000000000000000000000000000000000000007bffffffffffffffffffffffffffffffffffffffffffffffffffffffff19166020820180517bffffffffffffffffffffffffffffffffffffffffffffffffffffffff8381831617835250505050610311565b5050565b60008151905060006a636f6e736f6c652e6c6f679050602083016000808483855afa5050505050565b8280546103469061060f565b90600052602060002090601f01602090048101928261036857600085556103af565b82601f1061038157805160ff19168380011785556103af565b828001600101855582156103af579182015b828111156103ae578251825591602001919060010190610393565b5b5090506103bc91906103c0565b5090565b5b808211156103d95760008160009055506001016103c1565b5090565b60006103f06103eb84610580565b61055b565b90508281526020810184848401111561040857600080fd5b6104138482856105cd565b509392505050565b600082601f83011261042c57600080fd5b813561043c8482602086016103dd565b91505092915050565b60006020828403121561045757600080fd5b600082013567ffffffffffffffff81111561047157600080fd5b61047d8482850161041b565b91505092915050565b6000610491826105b1565b61049b81856105bc565b93506104ab8185602086016105dc565b6104b4816106d0565b840191505092915050565b60006104cc6008836105bc565b91506104d7826106e1565b602082019050919050565b600060208201905081810360008301526104fc8184610486565b905092915050565b6000604082019050818103600083015261051e8185610486565b905081810360208301526105328184610486565b90509392505050565b60006020820190508181036000830152610554816104bf565b9050919050565b6000610565610576565b90506105718282610641565b919050565b6000604051905090565b600067ffffffffffffffff82111561059b5761059a6106a1565b5b6105a4826106d0565b9050602081019050919050565b600081519050919050565b600082825260208201905092915050565b82818337600083830152505050565b60005b838110156105fa5780820151818401526020810190506105df565b83811115610609576000848401525b50505050565b6000600282049050600182168061062757607f821691505b6020821081141561063b5761063a610672565b5b50919050565b61064a826106d0565b810181811067ffffffffffffffff82111715610669576106686106a1565b5b80604052505050565b7f4e487b7100000000000000000000000000000000000000000000000000000000600052602260045260246000fd5b7f4e487b7100000000000000000000000000000000000000000000000000000000600052604160045260246000fd5b6000601f19601f8301169050919050565b7f4e4f5420484f4c4100000000000000000000000000000000000000000000000060008201525056fea264697066735822122057d5766be6f325c826884f0cab190a93a89895c91f8675a694b6bbdb418a506964736f6c634300080400334465706c6f79696e67206120477265657465722077697468206772656574696e673a",
  "linkReferences": {},
  "deployedLinkReferences": {}
}