{
  "_format": "hh-sol-artifact-1",
  "contractName": "SimpleNftContract",
  "sourceName": "contracts/3-SimpleNftContract.sol",
  "abi": [
    {
      "inputs": [],
      "stateMutability": "nonpayable",
      "type": "constructor"
    },
    {
      "anonymous": false,
      "inputs": [
        {
          "indexed": true,
          "internalType": "address",
          "name": "owner",
          "type": "address"
        },
        {
          "indexed": true,
          "internalType": "address",
          "name": "approved",
          "type": "address"
        },
        {
          "indexed": true,
          "internalType": "uint256",
          "name": "tokenId",
          "type": "uint256"
        }
      ],
      "name": "Approval",
      "type": "event"
    },
    {
      "anonymous": false,
      "inputs": [
        {
          "indexed": true,
          "internalType": "address",
          "name": "owner",
          "type": "address"
        },
        {
          "indexed": true,
          "internalType": "address",
          "name": "operator",
          "type": "address"
        },
        {
          "indexed": false,
          "internalType": "bool",
          "name": "approved",
          "type": "bool"
        }
      ],
      "name": "ApprovalForAll",
      "type": "event"
    },
    {
      "anonymous": false,
      "inputs": [
        {
          "indexed": true,
          "internalType": "address",
          "name": "previousOwner",
          "type": "address"
        },
        {
          "indexed": true,
          "internalType": "address",
          "name": "newOwner",
          "type": "address"
        }
      ],
      "name": "OwnershipTransferred",
      "type": "event"
    },
    {
      "anonymous": false,
      "inputs": [
        {
          "indexed": true,
          "internalType": "address",
          "name": "from",
          "type": "address"
        },
        {
          "indexed": true,
          "internalType": "address",
          "name": "to",
          "type": "address"
        },
        {
          "indexed": true,
          "internalType": "uint256",
          "name": "tokenId",
          "type": "uint256"
        }
      ],
      "name": "Transfer",
      "type": "event"
    },
    {
      "inputs": [],
      "name": "_tokenIds",
      "outputs": [
        {
          "internalType": "uint256",
          "name": "_value",
          "type": "uint256"
        }
      ],
      "stateMutability": "view",
      "type": "function"
    },
    {
      "inputs": [
        {
          "internalType": "address",
          "name": "to",
          "type": "address"
        },
        {
          "internalType": "uint256",
          "name": "tokenId",
          "type": "uint256"
        }
      ],
      "name": "approve",
      "outputs": [],
      "stateMutability": "nonpayable",
      "type": "function"
    },
    {
      "inputs": [
        {
          "internalType": "address",
          "name": "owner",
          "type": "address"
        }
      ],
      "name": "balanceOf",
      "outputs": [
        {
          "internalType": "uint256",
          "name": "",
          "type": "uint256"
        }
      ],
      "stateMutability": "view",
      "type": "function"
    },
    {
      "inputs": [
        {
          "internalType": "uint256",
          "name": "tokenId",
          "type": "uint256"
        }
      ],
      "name": "getApproved",
      "outputs": [
        {
          "internalType": "address",
          "name": "",
          "type": "address"
        }
      ],
      "stateMutability": "view",
      "type": "function"
    },
    {
      "inputs": [
        {
          "internalType": "address",
          "name": "owner",
          "type": "address"
        },
        {
          "internalType": "address",
          "name": "operator",
          "type": "address"
        }
      ],
      "name": "isApprovedForAll",
      "outputs": [
        {
          "internalType": "bool",
          "name": "",
          "type": "bool"
        }
      ],
      "stateMutability": "view",
      "type": "function"
    },
    {
      "inputs": [
        {
          "internalType": "address",
          "name": "to",
          "type": "address"
        },
        {
          "internalType": "string",
          "name": "_tokenURI",
          "type": "string"
        }
      ],
      "name": "mintItem",
      "outputs": [
        {
          "internalType": "uint256",
          "name": "",
          "type": "uint256"
        }
      ],
      "stateMutability": "nonpayable",
      "type": "function"
    },
    {
      "inputs": [],
      "name": "name",
      "outputs": [
        {
          "internalType": "string",
          "name": "",
          "type": "string"
        }
      ],
      "stateMutability": "view",
      "type": "function"
    },
    {
      "inputs": [],
      "name": "owner",
      "outputs": [
        {
          "internalType": "address",
          "name": "",
          "type": "address"
        }
      ],
      "stateMutability": "view",
      "type": "function"
    },
    {
      "inputs": [
        {
          "internalType": "uint256",
          "name": "tokenId",
          "type": "uint256"
        }
      ],
      "name": "ownerOf",
      "outputs": [
        {
          "internalType": "address",
          "name": "",
          "type": "address"
        }
      ],
      "stateMutability": "view",
      "type": "function"
    },
    {
      "inputs": [],
      "name": "renounceOwnership",
      "outputs": [],
      "stateMutability": "nonpayable",
      "type": "function"
    },
    {
      "inputs": [
        {
          "internalType": "address",
          "name": "from",
          "type": "address"
        },
        {
          "internalType": "address",
          "name": "to",
          "type": "address"
        },
        {
          "internalType": "uint256",
          "name": "tokenId",
          "type": "uint256"
        }
      ],
      "name": "safeTransferFrom",
      "outputs": [],
      "stateMutability": "nonpayable",
      "type": "function"
    },
    {
      "inputs": [
        {
          "internalType": "address",
          "name": "from",
          "type": "address"
        },
        {
          "internalType": "address",
          "name": "to",
          "type": "address"
        },
        {
          "internalType": "uint256",
          "name": "tokenId",
          "type": "uint256"
        },
        {
          "internalType": "bytes",
          "name": "_data",
          "type": "bytes"
        }
      ],
      "name": "safeTransferFrom",
      "outputs": [],
      "stateMutability": "nonpayable",
      "type": "function"
    },
    {
      "inputs": [
        {
          "internalType": "address",
          "name": "operator",
          "type": "address"
        },
        {
          "internalType": "bool",
          "name": "approved",
          "type": "bool"
        }
      ],
      "name": "setApprovalForAll",
      "outputs": [],
      "stateMutability": "nonpayable",
      "type": "function"
    },
    {
      "inputs": [
        {
          "internalType": "bytes4",
          "name": "interfaceId",
          "type": "bytes4"
        }
      ],
      "name": "supportsInterface",
      "outputs": [
        {
          "internalType": "bool",
          "name": "",
          "type": "bool"
        }
      ],
      "stateMutability": "view",
      "type": "function"
    },
    {
      "inputs": [],
      "name": "symbol",
      "outputs": [
        {
          "internalType": "string",
          "name": "",
          "type": "string"
        }
      ],
      "stateMutability": "view",
      "type": "function"
    },
    {
      "inputs": [
        {
          "internalType": "uint256",
          "name": "index",
          "type": "uint256"
        }
      ],
      "name": "tokenByIndex",
      "outputs": [
        {
          "internalType": "uint256",
          "name": "",
          "type": "uint256"
        }
      ],
      "stateMutability": "view",
      "type": "function"
    },
    {
      "inputs": [
        {
          "internalType": "address",
          "name": "owner",
          "type": "address"
        },
        {
          "internalType": "uint256",
          "name": "index",
          "type": "uint256"
        }
      ],
      "name": "tokenOfOwnerByIndex",
      "outputs": [
        {
          "internalType": "uint256",
          "name": "",
          "type": "uint256"
        }
      ],
      "stateMutability": "view",
      "type": "function"
    },
    {
      "inputs": [
        {
          "internalType": "uint256",
          "name": "tokenId",
          "type": "uint256"
        }
      ],
      "name": "tokenURI",
      "outputs": [
        {
          "internalType": "string",
          "name": "",
          "type": "string"
        }
      ],
      "stateMutability": "view",
      "type": "function"
    },
    {
      "inputs": [],
      "name": "totalSupply",
      "outputs": [
        {
          "internalType": "uint256",
          "name": "",
          "type": "uint256"
        }
      ],
      "stateMutability": "view",
      "type": "function"
    },
    {
      "inputs": [
        {
          "internalType": "address",
          "name": "from",
          "type": "address"
        },
        {
          "internalType": "address",
          "name": "to",
          "type": "address"
        },
        {
          "internalType": "uint256",
          "name": "tokenId",
          "type": "uint256"
        }
      ],
      "name": "transferFrom",
      "outputs": [],
      "stateMutability": "nonpayable",
      "type": "function"
    },
    {
      "inputs": [
        {
          "internalType": "address",
          "name": "newOwner",
          "type": "address"
        }
      ],
      "name": "transferOwnership",
      "outputs": [],
      "stateMutability": "nonpayable",
      "type": "function"
    }
  ],
  "bytecode": "0x60806040523480156200001157600080fd5b506040518060400160405280601381526020017f53696d706c65204e465420436f6e7472616374000000000000000000000000008152506040518060400160405280600381526020017f534e430000000000000000000000000000000000000000000000000000000000815250816000908051906020019062000096929190620001a6565b508060019080519060200190620000af929190620001a6565b505050620000d2620000c6620000d860201b60201c565b620000e060201b60201c565b620002bb565b600033905090565b6000600b60009054906101000a900473ffffffffffffffffffffffffffffffffffffffff16905081600b60006101000a81548173ffffffffffffffffffffffffffffffffffffffff021916908373ffffffffffffffffffffffffffffffffffffffff1602179055508173ffffffffffffffffffffffffffffffffffffffff168173ffffffffffffffffffffffffffffffffffffffff167f8be0079c531659141344cd1fd0a4f28419497f9722a3daafe3b4186f6b6457e060405160405180910390a35050565b828054620001b49062000256565b90600052602060002090601f016020900481019282620001d8576000855562000224565b82601f10620001f357805160ff191683800117855562000224565b8280016001018555821562000224579182015b828111156200022357825182559160200191906001019062000206565b5b50905062000233919062000237565b5090565b5b808211156200025257600081600090555060010162000238565b5090565b600060028204905060018216806200026f57607f821691505b602082108114156200028657620002856200028c565b5b50919050565b7f4e487b7100000000000000000000000000000000000000000000000000000000600052602260045260246000fd5b6138ac80620002cb6000396000f3fe608060405234801561001057600080fd5b50600436106101375760003560e01c80636352211e116100b8578063a22cb4651161007c578063a22cb46514610362578063aa46a4001461037e578063b88d4fde1461039c578063c87b56dd146103b8578063e985e9c5146103e8578063f2fde38b1461041857610137565b80636352211e146102bc57806370a08231146102ec578063715018a61461031c5780638da5cb5b1461032657806395d89b411461034457610137565b806318160ddd116100ff57806318160ddd1461020657806323b872dd146102245780632f745c591461024057806342842e0e146102705780634f6ccce71461028c57610137565b806301ffc9a71461013c57806306fdde031461016c578063081812fc1461018a578063095ea7b3146101ba578063110bcd45146101d6575b600080fd5b61015660048036038101906101519190612737565b610434565b6040516101639190612bc9565b60405180910390f35b610174610446565b6040516101819190612be4565b60405180910390f35b6101a4600480360381019061019f9190612789565b6104d8565b6040516101b19190612b62565b60405180910390f35b6101d460048036038101906101cf91906126fb565b61055d565b005b6101f060048036038101906101eb91906126a7565b610675565b6040516101fd9190612e86565b60405180910390f35b61020e610729565b60405161021b9190612e86565b60405180910390f35b61023e600480360381019061023991906125a1565b610736565b005b61025a600480360381019061025591906126fb565b610796565b6040516102679190612e86565b60405180910390f35b61028a600480360381019061028591906125a1565b61083b565b005b6102a660048036038101906102a19190612789565b61085b565b6040516102b39190612e86565b60405180910390f35b6102d660048036038101906102d19190612789565b6108f2565b6040516102e39190612b62565b60405180910390f35b6103066004803603810190610301919061253c565b6109a4565b6040516103139190612e86565b60405180910390f35b610324610a5c565b005b61032e610ae4565b60405161033b9190612b62565b60405180910390f35b61034c610b0e565b6040516103599190612be4565b60405180910390f35b61037c6004803603810190610377919061266b565b610ba0565b005b610386610bb6565b6040516103939190612e86565b60405180910390f35b6103b660048036038101906103b191906125f0565b610bc2565b005b6103d260048036038101906103cd9190612789565b610c24565b6040516103df9190612be4565b60405180910390f35b61040260048036038101906103fd9190612565565b610c7e565b60405161040f9190612bc9565b60405180910390f35b610432600480360381019061042d919061253c565b610d12565b005b600061043f82610e0a565b9050919050565b606060008054610455906130dc565b80601f0160208091040260200160405190810160405280929190818152602001828054610481906130dc565b80156104ce5780601f106104a3576101008083540402835291602001916104ce565b820191906000526020600020905b8154815290600101906020018083116104b157829003601f168201915b5050505050905090565b60006104e382610e84565b610522576040517f08c379a000000000000000000000000000000000000000000000000000000000815260040161051990612dc6565b60405180910390fd5b6004600083815260200190815260200160002060009054906101000a900473ffffffffffffffffffffffffffffffffffffffff169050919050565b6000610568826108f2565b90508073ffffffffffffffffffffffffffffffffffffffff168373ffffffffffffffffffffffffffffffffffffffff1614156105d9576040517f08c379a00000000000000000000000000000000000000000000000000000000081526004016105d090612e26565b60405180910390fd5b8073ffffffffffffffffffffffffffffffffffffffff166105f8610ef0565b73ffffffffffffffffffffffffffffffffffffffff161480610627575061062681610621610ef0565b610c7e565b5b610666576040517f08c379a000000000000000000000000000000000000000000000000000000000815260040161065d90612d06565b60405180910390fd5b6106708383610ef8565b505050565b600061067f610ef0565b73ffffffffffffffffffffffffffffffffffffffff1661069d610ae4565b73ffffffffffffffffffffffffffffffffffffffff16146106f3576040517f08c379a00000000000000000000000000000000000000000000000000000000081526004016106ea90612de6565b60405180910390fd5b6106fd600c610fb1565b6000610709600c610fc7565b90506107158482610fd5565b61071f81846111af565b8091505092915050565b6000600980549050905090565b610747610741610ef0565b82611223565b610786576040517f08c379a000000000000000000000000000000000000000000000000000000000815260040161077d90612e46565b60405180910390fd5b610791838383611301565b505050565b60006107a1836109a4565b82106107e2576040517f08c379a00000000000000000000000000000000000000000000000000000000081526004016107d990612c06565b60405180910390fd5b600760008473ffffffffffffffffffffffffffffffffffffffff1673ffffffffffffffffffffffffffffffffffffffff168152602001908152602001600020600083815260200190815260200160002054905092915050565b61085683838360405180602001604052806000815250610bc2565b505050565b6000610865610729565b82106108a6576040517f08c379a000000000000000000000000000000000000000000000000000000000815260040161089d90612e66565b60405180910390fd5b600982815481106108e0577f4e487b7100000000000000000000000000000000000000000000000000000000600052603260045260246000fd5b90600052602060002001549050919050565b6000806002600084815260200190815260200160002060009054906101000a900473ffffffffffffffffffffffffffffffffffffffff169050600073ffffffffffffffffffffffffffffffffffffffff168173ffffffffffffffffffffffffffffffffffffffff16141561099b576040517f08c379a000000000000000000000000000000000000000000000000000000000815260040161099290612d46565b60405180910390fd5b80915050919050565b60008073ffffffffffffffffffffffffffffffffffffffff168273ffffffffffffffffffffffffffffffffffffffff161415610a15576040517f08c379a0000000000000000000000000000000000000000000000000000000008152600401610a0c90612d26565b60405180910390fd5b600360008373ffffffffffffffffffffffffffffffffffffffff1673ffffffffffffffffffffffffffffffffffffffff168152602001908152602001600020549050919050565b610a64610ef0565b73ffffffffffffffffffffffffffffffffffffffff16610a82610ae4565b73ffffffffffffffffffffffffffffffffffffffff1614610ad8576040517f08c379a0000000000000000000000000000000000000000000000000000000008152600401610acf90612de6565b60405180910390fd5b610ae26000611568565b565b6000600b60009054906101000a900473ffffffffffffffffffffffffffffffffffffffff16905090565b606060018054610b1d906130dc565b80601f0160208091040260200160405190810160405280929190818152602001828054610b49906130dc565b8015610b965780601f10610b6b57610100808354040283529160200191610b96565b820191906000526020600020905b815481529060010190602001808311610b7957829003601f168201915b5050505050905090565b610bb2610bab610ef0565b838361162e565b5050565b600c8060000154905081565b610bd3610bcd610ef0565b83611223565b610c12576040517f08c379a0000000000000000000000000000000000000000000000000000000008152600401610c0990612e46565b60405180910390fd5b610c1e8484848461179b565b50505050565b6060610c2f82610e84565b610c6e576040517f08c379a0000000000000000000000000000000000000000000000000000000008152600401610c6590612da6565b60405180910390fd5b610c77826117f7565b9050919050565b6000600560008473ffffffffffffffffffffffffffffffffffffffff1673ffffffffffffffffffffffffffffffffffffffff16815260200190815260200160002060008373ffffffffffffffffffffffffffffffffffffffff1673ffffffffffffffffffffffffffffffffffffffff16815260200190815260200160002060009054906101000a900460ff16905092915050565b610d1a610ef0565b73ffffffffffffffffffffffffffffffffffffffff16610d38610ae4565b73ffffffffffffffffffffffffffffffffffffffff1614610d8e576040517f08c379a0000000000000000000000000000000000000000000000000000000008152600401610d8590612de6565b60405180910390fd5b600073ffffffffffffffffffffffffffffffffffffffff168173ffffffffffffffffffffffffffffffffffffffff161415610dfe576040517f08c379a0000000000000000000000000000000000000000000000000000000008152600401610df590612c46565b60405180910390fd5b610e0781611568565b50565b60007f780e9d63000000000000000000000000000000000000000000000000000000007bffffffffffffffffffffffffffffffffffffffffffffffffffffffff1916827bffffffffffffffffffffffffffffffffffffffffffffffffffffffff19161480610e7d5750610e7c82611949565b5b9050919050565b60008073ffffffffffffffffffffffffffffffffffffffff166002600084815260200190815260200160002060009054906101000a900473ffffffffffffffffffffffffffffffffffffffff1673ffffffffffffffffffffffffffffffffffffffff1614159050919050565b600033905090565b816004600083815260200190815260200160002060006101000a81548173ffffffffffffffffffffffffffffffffffffffff021916908373ffffffffffffffffffffffffffffffffffffffff160217905550808273ffffffffffffffffffffffffffffffffffffffff16610f6b836108f2565b73ffffffffffffffffffffffffffffffffffffffff167f8c5be1e5ebec7d5bd14f71427d1e84f3dd0314c0f7b2291e5b200ac8c7c3b92560405160405180910390a45050565b6001816000016000828254019250508190555050565b600081600001549050919050565b600073ffffffffffffffffffffffffffffffffffffffff168273ffffffffffffffffffffffffffffffffffffffff161415611045576040517f08c379a000000000000000000000000000000000000000000000000000000000815260040161103c90612d86565b60405180910390fd5b61104e81610e84565b1561108e576040517f08c379a000000000000000000000000000000000000000000000000000000000815260040161108590612c86565b60405180910390fd5b61109a60008383611a2b565b6001600360008473ffffffffffffffffffffffffffffffffffffffff1673ffffffffffffffffffffffffffffffffffffffff16815260200190815260200160002060008282546110ea9190612f6b565b92505081905550816002600083815260200190815260200160002060006101000a81548173ffffffffffffffffffffffffffffffffffffffff021916908373ffffffffffffffffffffffffffffffffffffffff160217905550808273ffffffffffffffffffffffffffffffffffffffff16600073ffffffffffffffffffffffffffffffffffffffff167fddf252ad1be2c89b69c2b068fc378daa952ba7f163c4a11628f55a4df523b3ef60405160405180910390a46111ab60008383611a3b565b5050565b6111b882610e84565b6111f7576040517f08c379a00000000000000000000000000000000000000000000000000000000081526004016111ee90612d66565b60405180910390fd5b8060066000848152602001908152602001600020908051906020019061121e929190612360565b505050565b600061122e82610e84565b61126d576040517f08c379a000000000000000000000000000000000000000000000000000000000815260040161126490612ce6565b60405180910390fd5b6000611278836108f2565b90508073ffffffffffffffffffffffffffffffffffffffff168473ffffffffffffffffffffffffffffffffffffffff1614806112e757508373ffffffffffffffffffffffffffffffffffffffff166112cf846104d8565b73ffffffffffffffffffffffffffffffffffffffff16145b806112f857506112f78185610c7e565b5b91505092915050565b8273ffffffffffffffffffffffffffffffffffffffff16611321826108f2565b73ffffffffffffffffffffffffffffffffffffffff1614611377576040517f08c379a000000000000000000000000000000000000000000000000000000000815260040161136e90612c66565b60405180910390fd5b600073ffffffffffffffffffffffffffffffffffffffff168273ffffffffffffffffffffffffffffffffffffffff1614156113e7576040517f08c379a00000000000000000000000000000000000000000000000000000000081526004016113de90612ca6565b60405180910390fd5b6113f2838383611a2b565b6113fd600082610ef8565b6001600360008573ffffffffffffffffffffffffffffffffffffffff1673ffffffffffffffffffffffffffffffffffffffff168152602001908152602001600020600082825461144d9190612ff2565b925050819055506001600360008473ffffffffffffffffffffffffffffffffffffffff1673ffffffffffffffffffffffffffffffffffffffff16815260200190815260200160002060008282546114a49190612f6b565b92505081905550816002600083815260200190815260200160002060006101000a81548173ffffffffffffffffffffffffffffffffffffffff021916908373ffffffffffffffffffffffffffffffffffffffff160217905550808273ffffffffffffffffffffffffffffffffffffffff168473ffffffffffffffffffffffffffffffffffffffff167fddf252ad1be2c89b69c2b068fc378daa952ba7f163c4a11628f55a4df523b3ef60405160405180910390a4611563838383611a3b565b505050565b6000600b60009054906101000a900473ffffffffffffffffffffffffffffffffffffffff16905081600b60006101000a81548173ffffffffffffffffffffffffffffffffffffffff021916908373ffffffffffffffffffffffffffffffffffffffff1602179055508173ffffffffffffffffffffffffffffffffffffffff168173ffffffffffffffffffffffffffffffffffffffff167f8be0079c531659141344cd1fd0a4f28419497f9722a3daafe3b4186f6b6457e060405160405180910390a35050565b8173ffffffffffffffffffffffffffffffffffffffff168373ffffffffffffffffffffffffffffffffffffffff16141561169d576040517f08c379a000000000000000000000000000000000000000000000000000000000815260040161169490612cc6565b60405180910390fd5b80600560008573ffffffffffffffffffffffffffffffffffffffff1673ffffffffffffffffffffffffffffffffffffffff16815260200190815260200160002060008473ffffffffffffffffffffffffffffffffffffffff1673ffffffffffffffffffffffffffffffffffffffff16815260200190815260200160002060006101000a81548160ff0219169083151502179055508173ffffffffffffffffffffffffffffffffffffffff168373ffffffffffffffffffffffffffffffffffffffff167f17307eab39ab6107e8899845ad3d59bd9653f200f220920489ca2b5937696c318360405161178e9190612bc9565b60405180910390a3505050565b6117a6848484611301565b6117b284848484611a40565b6117f1576040517f08c379a00000000000000000000000000000000000000000000000000000000081526004016117e890612c26565b60405180910390fd5b50505050565b606061180282610e84565b611841576040517f08c379a000000000000000000000000000000000000000000000000000000000815260040161183890612da6565b60405180910390fd5b6000600660008481526020019081526020016000208054611861906130dc565b80601f016020809104026020016040519081016040528092919081815260200182805461188d906130dc565b80156118da5780601f106118af576101008083540402835291602001916118da565b820191906000526020600020905b8154815290600101906020018083116118bd57829003601f168201915b5050505050905060006118eb611bd7565b9050600081511415611901578192505050611944565b60008251111561193657808260405160200161191e929190612b3e565b60405160208183030381529060405292505050611944565b61193f84611bee565b925050505b919050565b60007f80ac58cd000000000000000000000000000000000000000000000000000000007bffffffffffffffffffffffffffffffffffffffffffffffffffffffff1916827bffffffffffffffffffffffffffffffffffffffffffffffffffffffff19161480611a1457507f5b5e139f000000000000000000000000000000000000000000000000000000007bffffffffffffffffffffffffffffffffffffffffffffffffffffffff1916827bffffffffffffffffffffffffffffffffffffffffffffffffffffffff1916145b80611a245750611a2382611c95565b5b9050919050565b611a36838383611cff565b505050565b505050565b6000611a618473ffffffffffffffffffffffffffffffffffffffff16611e13565b15611bca578373ffffffffffffffffffffffffffffffffffffffff1663150b7a02611a8a610ef0565b8786866040518563ffffffff1660e01b8152600401611aac9493929190612b7d565b602060405180830381600087803b158015611ac657600080fd5b505af1925050508015611af757506040513d601f19601f82011682018060405250810190611af49190612760565b60015b611b7a573d8060008114611b27576040519150601f19603f3d011682016040523d82523d6000602084013e611b2c565b606091505b50600081511415611b72576040517f08c379a0000000000000000000000000000000000000000000000000000000008152600401611b6990612c26565b60405180910390fd5b805181602001fd5b63150b7a0260e01b7bffffffffffffffffffffffffffffffffffffffffffffffffffffffff1916817bffffffffffffffffffffffffffffffffffffffffffffffffffffffff191614915050611bcf565b600190505b949350505050565b606060405180602001604052806000815250905090565b6060611bf982610e84565b611c38576040517f08c379a0000000000000000000000000000000000000000000000000000000008152600401611c2f90612e06565b60405180910390fd5b6000611c42611bd7565b90506000815111611c625760405180602001604052806000815250611c8d565b80611c6c84611e36565b604051602001611c7d929190612b3e565b6040516020818303038152906040525b915050919050565b60007f01ffc9a7000000000000000000000000000000000000000000000000000000007bffffffffffffffffffffffffffffffffffffffffffffffffffffffff1916827bffffffffffffffffffffffffffffffffffffffffffffffffffffffff1916149050919050565b611d0a838383611fe3565b600073ffffffffffffffffffffffffffffffffffffffff168373ffffffffffffffffffffffffffffffffffffffff161415611d4d57611d4881611fe8565b611d8c565b8173ffffffffffffffffffffffffffffffffffffffff168373ffffffffffffffffffffffffffffffffffffffff1614611d8b57611d8a8382612031565b5b5b600073ffffffffffffffffffffffffffffffffffffffff168273ffffffffffffffffffffffffffffffffffffffff161415611dcf57611dca8161219e565b611e0e565b8273ffffffffffffffffffffffffffffffffffffffff168273ffffffffffffffffffffffffffffffffffffffff1614611e0d57611e0c82826122e1565b5b5b505050565b6000808273ffffffffffffffffffffffffffffffffffffffff163b119050919050565b60606000821415611e7e576040518060400160405280600181526020017f30000000000000000000000000000000000000000000000000000000000000008152509050611fde565b600082905060005b60008214611eb0578080611e999061313f565b915050600a82611ea99190612fc1565b9150611e86565b60008167ffffffffffffffff811115611ef2577f4e487b7100000000000000000000000000000000000000000000000000000000600052604160045260246000fd5b6040519080825280601f01601f191660200182016040528015611f245781602001600182028036833780820191505090505b5090505b60008514611fd757600182611f3d9190612ff2565b9150600a85611f4c9190613188565b6030611f589190612f6b565b60f81b818381518110611f94577f4e487b7100000000000000000000000000000000000000000000000000000000600052603260045260246000fd5b60200101907effffffffffffffffffffffffffffffffffffffffffffffffffffffffffffff1916908160001a905350600a85611fd09190612fc1565b9450611f28565b8093505050505b919050565b505050565b600980549050600a600083815260200190815260200160002081905550600981908060018154018082558091505060019003906000526020600020016000909190919091505550565b6000600161203e846109a4565b6120489190612ff2565b905060006008600084815260200190815260200160002054905081811461212d576000600760008673ffffffffffffffffffffffffffffffffffffffff1673ffffffffffffffffffffffffffffffffffffffff168152602001908152602001600020600084815260200190815260200160002054905080600760008773ffffffffffffffffffffffffffffffffffffffff1673ffffffffffffffffffffffffffffffffffffffff168152602001908152602001600020600084815260200190815260200160002081905550816008600083815260200190815260200160002081905550505b6008600084815260200190815260200160002060009055600760008573ffffffffffffffffffffffffffffffffffffffff1673ffffffffffffffffffffffffffffffffffffffff16815260200190815260200160002060008381526020019081526020016000206000905550505050565b600060016009805490506121b29190612ff2565b90506000600a6000848152602001908152602001600020549050600060098381548110612208577f4e487b7100000000000000000000000000000000000000000000000000000000600052603260045260246000fd5b906000526020600020015490508060098381548110612250577f4e487b7100000000000000000000000000000000000000000000000000000000600052603260045260246000fd5b906000526020600020018190555081600a600083815260200190815260200160002081905550600a60008581526020019081526020016000206000905560098054806122c5577f4e487b7100000000000000000000000000000000000000000000000000000000600052603160045260246000fd5b6001900381819060005260206000200160009055905550505050565b60006122ec836109a4565b905081600760008573ffffffffffffffffffffffffffffffffffffffff1673ffffffffffffffffffffffffffffffffffffffff168152602001908152602001600020600083815260200190815260200160002081905550806008600084815260200190815260200160002081905550505050565b82805461236c906130dc565b90600052602060002090601f01602090048101928261238e57600085556123d5565b82601f106123a757805160ff19168380011785556123d5565b828001600101855582156123d5579182015b828111156123d45782518255916020019190600101906123b9565b5b5090506123e291906123e6565b5090565b5b808211156123ff5760008160009055506001016123e7565b5090565b600061241661241184612ec6565b612ea1565b90508281526020810184848401111561242e57600080fd5b61243984828561309a565b509392505050565b600061245461244f84612ef7565b612ea1565b90508281526020810184848401111561246c57600080fd5b61247784828561309a565b509392505050565b60008135905061248e8161381a565b92915050565b6000813590506124a381613831565b92915050565b6000813590506124b881613848565b92915050565b6000815190506124cd81613848565b92915050565b600082601f8301126124e457600080fd5b81356124f4848260208601612403565b91505092915050565b600082601f83011261250e57600080fd5b813561251e848260208601612441565b91505092915050565b6000813590506125368161385f565b92915050565b60006020828403121561254e57600080fd5b600061255c8482850161247f565b91505092915050565b6000806040838503121561257857600080fd5b60006125868582860161247f565b92505060206125978582860161247f565b9150509250929050565b6000806000606084860312156125b657600080fd5b60006125c48682870161247f565b93505060206125d58682870161247f565b92505060406125e686828701612527565b9150509250925092565b6000806000806080858703121561260657600080fd5b60006126148782880161247f565b94505060206126258782880161247f565b935050604061263687828801612527565b925050606085013567ffffffffffffffff81111561265357600080fd5b61265f878288016124d3565b91505092959194509250565b6000806040838503121561267e57600080fd5b600061268c8582860161247f565b925050602061269d85828601612494565b9150509250929050565b600080604083850312156126ba57600080fd5b60006126c88582860161247f565b925050602083013567ffffffffffffffff8111156126e557600080fd5b6126f1858286016124fd565b9150509250929050565b6000806040838503121561270e57600080fd5b600061271c8582860161247f565b925050602061272d85828601612527565b9150509250929050565b60006020828403121561274957600080fd5b6000612757848285016124a9565b91505092915050565b60006020828403121561277257600080fd5b6000612780848285016124be565b91505092915050565b60006020828403121561279b57600080fd5b60006127a984828501612527565b91505092915050565b6127bb81613026565b82525050565b6127ca81613038565b82525050565b60006127db82612f28565b6127e58185612f3e565b93506127f58185602086016130a9565b6127fe81613275565b840191505092915050565b600061281482612f33565b61281e8185612f4f565b935061282e8185602086016130a9565b61283781613275565b840191505092915050565b600061284d82612f33565b6128578185612f60565b93506128678185602086016130a9565b80840191505092915050565b6000612880602b83612f4f565b915061288b82613286565b604082019050919050565b60006128a3603283612f4f565b91506128ae826132d5565b604082019050919050565b60006128c6602683612f4f565b91506128d182613324565b604082019050919050565b60006128e9602583612f4f565b91506128f482613373565b604082019050919050565b600061290c601c83612f4f565b9150612917826133c2565b602082019050919050565b600061292f602483612f4f565b915061293a826133eb565b604082019050919050565b6000612952601983612f4f565b915061295d8261343a565b602082019050919050565b6000612975602c83612f4f565b915061298082613463565b604082019050919050565b6000612998603883612f4f565b91506129a3826134b2565b604082019050919050565b60006129bb602a83612f4f565b91506129c682613501565b604082019050919050565b60006129de602983612f4f565b91506129e982613550565b604082019050919050565b6000612a01602e83612f4f565b9150612a0c8261359f565b604082019050919050565b6000612a24602083612f4f565b9150612a2f826135ee565b602082019050919050565b6000612a47603183612f4f565b9150612a5282613617565b604082019050919050565b6000612a6a602c83612f4f565b9150612a7582613666565b604082019050919050565b6000612a8d602083612f4f565b9150612a98826136b5565b602082019050919050565b6000612ab0602f83612f4f565b9150612abb826136de565b604082019050919050565b6000612ad3602183612f4f565b9150612ade8261372d565b604082019050919050565b6000612af6603183612f4f565b9150612b018261377c565b604082019050919050565b6000612b19602c83612f4f565b9150612b24826137cb565b604082019050919050565b612b3881613090565b82525050565b6000612b4a8285612842565b9150612b568284612842565b91508190509392505050565b6000602082019050612b7760008301846127b2565b92915050565b6000608082019050612b9260008301876127b2565b612b9f60208301866127b2565b612bac6040830185612b2f565b8181036060830152612bbe81846127d0565b905095945050505050565b6000602082019050612bde60008301846127c1565b92915050565b60006020820190508181036000830152612bfe8184612809565b905092915050565b60006020820190508181036000830152612c1f81612873565b9050919050565b60006020820190508181036000830152612c3f81612896565b9050919050565b60006020820190508181036000830152612c5f816128b9565b9050919050565b60006020820190508181036000830152612c7f816128dc565b9050919050565b60006020820190508181036000830152612c9f816128ff565b9050919050565b60006020820190508181036000830152612cbf81612922565b9050919050565b60006020820190508181036000830152612cdf81612945565b9050919050565b60006020820190508181036000830152612cff81612968565b9050919050565b60006020820190508181036000830152612d1f8161298b565b9050919050565b60006020820190508181036000830152612d3f816129ae565b9050919050565b60006020820190508181036000830152612d5f816129d1565b9050919050565b60006020820190508181036000830152612d7f816129f4565b9050919050565b60006020820190508181036000830152612d9f81612a17565b9050919050565b60006020820190508181036000830152612dbf81612a3a565b9050919050565b60006020820190508181036000830152612ddf81612a5d565b9050919050565b60006020820190508181036000830152612dff81612a80565b9050919050565b60006020820190508181036000830152612e1f81612aa3565b9050919050565b60006020820190508181036000830152612e3f81612ac6565b9050919050565b60006020820190508181036000830152612e5f81612ae9565b9050919050565b60006020820190508181036000830152612e7f81612b0c565b9050919050565b6000602082019050612e9b6000830184612b2f565b92915050565b6000612eab612ebc565b9050612eb7828261310e565b919050565b6000604051905090565b600067ffffffffffffffff821115612ee157612ee0613246565b5b612eea82613275565b9050602081019050919050565b600067ffffffffffffffff821115612f1257612f11613246565b5b612f1b82613275565b9050602081019050919050565b600081519050919050565b600081519050919050565b600082825260208201905092915050565b600082825260208201905092915050565b600081905092915050565b6000612f7682613090565b9150612f8183613090565b9250827fffffffffffffffffffffffffffffffffffffffffffffffffffffffffffffffff03821115612fb657612fb56131b9565b5b828201905092915050565b6000612fcc82613090565b9150612fd783613090565b925082612fe757612fe66131e8565b5b828204905092915050565b6000612ffd82613090565b915061300883613090565b92508282101561301b5761301a6131b9565b5b828203905092915050565b600061303182613070565b9050919050565b60008115159050919050565b60007fffffffff0000000000000000000000000000000000000000000000000000000082169050919050565b600073ffffffffffffffffffffffffffffffffffffffff82169050919050565b6000819050919050565b82818337600083830152505050565b60005b838110156130c75780820151818401526020810190506130ac565b838111156130d6576000848401525b50505050565b600060028204905060018216806130f457607f821691505b6020821081141561310857613107613217565b5b50919050565b61311782613275565b810181811067ffffffffffffffff8211171561313657613135613246565b5b80604052505050565b600061314a82613090565b91507fffffffffffffffffffffffffffffffffffffffffffffffffffffffffffffffff82141561317d5761317c6131b9565b5b600182019050919050565b600061319382613090565b915061319e83613090565b9250826131ae576131ad6131e8565b5b828206905092915050565b7f4e487b7100000000000000000000000000000000000000000000000000000000600052601160045260246000fd5b7f4e487b7100000000000000000000000000000000000000000000000000000000600052601260045260246000fd5b7f4e487b7100000000000000000000000000000000000000000000000000000000600052602260045260246000fd5b7f4e487b7100000000000000000000000000000000000000000000000000000000600052604160045260246000fd5b6000601f19601f8301169050919050565b7f455243373231456e756d657261626c653a206f776e657220696e646578206f7560008201527f74206f6620626f756e6473000000000000000000000000000000000000000000602082015250565b7f4552433732313a207472616e7366657220746f206e6f6e20455243373231526560008201527f63656976657220696d706c656d656e7465720000000000000000000000000000602082015250565b7f4f776e61626c653a206e6577206f776e657220697320746865207a65726f206160008201527f6464726573730000000000000000000000000000000000000000000000000000602082015250565b7f4552433732313a207472616e736665722066726f6d20696e636f72726563742060008201527f6f776e6572000000000000000000000000000000000000000000000000000000602082015250565b7f4552433732313a20746f6b656e20616c7265616479206d696e74656400000000600082015250565b7f4552433732313a207472616e7366657220746f20746865207a65726f2061646460008201527f7265737300000000000000000000000000000000000000000000000000000000602082015250565b7f4552433732313a20617070726f766520746f2063616c6c657200000000000000600082015250565b7f4552433732313a206f70657261746f7220717565727920666f72206e6f6e657860008201527f697374656e7420746f6b656e0000000000000000000000000000000000000000602082015250565b7f4552433732313a20617070726f76652063616c6c6572206973206e6f74206f7760008201527f6e6572206e6f7220617070726f76656420666f7220616c6c0000000000000000602082015250565b7f4552433732313a2062616c616e636520717565727920666f7220746865207a6560008201527f726f206164647265737300000000000000000000000000000000000000000000602082015250565b7f4552433732313a206f776e657220717565727920666f72206e6f6e657869737460008201527f656e7420746f6b656e0000000000000000000000000000000000000000000000602082015250565b7f45524337323155524953746f726167653a2055524920736574206f66206e6f6e60008201527f6578697374656e7420746f6b656e000000000000000000000000000000000000602082015250565b7f4552433732313a206d696e7420746f20746865207a65726f2061646472657373600082015250565b7f45524337323155524953746f726167653a2055524920717565727920666f722060008201527f6e6f6e6578697374656e7420746f6b656e000000000000000000000000000000602082015250565b7f4552433732313a20617070726f76656420717565727920666f72206e6f6e657860008201527f697374656e7420746f6b656e0000000000000000000000000000000000000000602082015250565b7f4f776e61626c653a2063616c6c6572206973206e6f7420746865206f776e6572600082015250565b7f4552433732314d657461646174613a2055524920717565727920666f72206e6f60008201527f6e6578697374656e7420746f6b656e0000000000000000000000000000000000602082015250565b7f4552433732313a20617070726f76616c20746f2063757272656e74206f776e6560008201527f7200000000000000000000000000000000000000000000000000000000000000602082015250565b7f4552433732313a207472616e736665722063616c6c6572206973206e6f74206f60008201527f776e6572206e6f7220617070726f766564000000000000000000000000000000602082015250565b7f455243373231456e756d657261626c653a20676c6f62616c20696e646578206f60008201527f7574206f6620626f756e64730000000000000000000000000000000000000000602082015250565b61382381613026565b811461382e57600080fd5b50565b61383a81613038565b811461384557600080fd5b50565b61385181613044565b811461385c57600080fd5b50565b61386881613090565b811461387357600080fd5b5056fea26469706673582212207fc9f53c850a958102662396b3a0cc3b67762160ca1915fe3d06fc114623003f64736f6c63430008040033",
  "linkReferences": {},
  "deployedLinkReferences": {}
}